{
  "_format": "hh-sol-artifact-1",
  "contractName": "CardsOracle",
  "sourceName": "contracts/CardsOracle.sol",
  "abi": [
    {
      "inputs": [],
      "stateMutability": "nonpayable",
      "type": "constructor"
    },
    {
      "anonymous": false,
      "inputs": [
        {
          "indexed": true,
          "internalType": "uint32",
          "name": "requestid",
          "type": "uint32"
        },
        {
          "indexed": false,
          "internalType": "bytes2[]",
          "name": "cards",
          "type": "bytes2[]"
        },
        {
          "indexed": true,
          "internalType": "address",
          "name": "sender",
          "type": "address"
        },
        {
          "indexed": true,
          "internalType": "uint256",
          "name": "timestamp",
          "type": "uint256"
        }
      ],
      "name": "OracleFulfillment",
      "type": "event"
    },
    {
      "anonymous": false,
      "inputs": [
        {
          "indexed": true,
          "internalType": "uint32",
          "name": "requestid",
          "type": "uint32"
        },
        {
          "indexed": false,
          "internalType": "bool",
          "name": "shuffle",
          "type": "bool"
        },
        {
          "indexed": true,
          "internalType": "address",
          "name": "sender",
          "type": "address"
        },
        {
          "indexed": true,
          "internalType": "uint256",
          "name": "timestamp",
          "type": "uint256"
        }
      ],
      "name": "OracleRequest",
      "type": "event"
    },
    {
      "inputs": [],
      "name": "fee",
      "outputs": [
        {
          "internalType": "uint256",
          "name": "",
          "type": "uint256"
        }
      ],
      "stateMutability": "view",
      "type": "function"
    },
    {
      "inputs": [
        {
          "internalType": "uint32",
          "name": "_requestId",
          "type": "uint32"
        },
        {
          "internalType": "bytes2[]",
          "name": "_cards",
          "type": "bytes2[]"
        }
      ],
      "name": "fulfillRequest",
      "outputs": [],
      "stateMutability": "nonpayable",
      "type": "function"
    },
    {
      "inputs": [
        {
          "internalType": "uint32",
          "name": "",
          "type": "uint32"
        }
      ],
      "name": "idToRequest",
      "outputs": [
        {
          "internalType": "uint8",
          "name": "nrOfCards",
          "type": "uint8"
        },
        {
          "internalType": "bool",
          "name": "shuffle",
          "type": "bool"
        },
        {
          "internalType": "address",
          "name": "cbClient",
          "type": "address"
        },
        {
          "internalType": "bytes4",
          "name": "cbSelector",
          "type": "bytes4"
        },
        {
          "internalType": "bool",
          "name": "fulfilled",
          "type": "bool"
        }
      ],
      "stateMutability": "view",
      "type": "function"
    },
    {
      "inputs": [],
      "name": "owner",
      "outputs": [
        {
          "internalType": "address",
          "name": "",
          "type": "address"
        }
      ],
      "stateMutability": "view",
      "type": "function"
    },
    {
      "inputs": [
        {
          "components": [
            {
              "internalType": "uint8",
              "name": "nrOfCards",
              "type": "uint8"
            },
            {
              "internalType": "bool",
              "name": "shuffle",
              "type": "bool"
            },
            {
              "internalType": "address",
              "name": "cbClient",
              "type": "address"
            },
            {
              "internalType": "bytes4",
              "name": "cbSelector",
              "type": "bytes4"
            },
            {
              "internalType": "bool",
              "name": "fulfilled",
              "type": "bool"
            }
          ],
          "internalType": "struct IOracle.Request",
          "name": "_request",
          "type": "tuple"
        }
      ],
      "name": "receiveRequest",
      "outputs": [
        {
          "internalType": "uint32",
          "name": "",
          "type": "uint32"
        }
      ],
      "stateMutability": "payable",
      "type": "function"
    },
    {
      "inputs": [],
      "name": "requestId",
      "outputs": [
        {
          "internalType": "uint32",
          "name": "",
          "type": "uint32"
        }
      ],
      "stateMutability": "view",
      "type": "function"
    },
    {
      "inputs": [
        {
          "internalType": "uint256",
          "name": "_fee",
          "type": "uint256"
        }
      ],
      "name": "setFee",
      "outputs": [],
      "stateMutability": "nonpayable",
      "type": "function"
    },
    {
      "inputs": [],
      "name": "stopped",
      "outputs": [
        {
          "internalType": "bool",
          "name": "",
          "type": "bool"
        }
      ],
      "stateMutability": "view",
      "type": "function"
    },
    {
      "inputs": [],
      "name": "toggleState",
      "outputs": [],
      "stateMutability": "nonpayable",
      "type": "function"
    },
    {
      "inputs": [
        {
          "internalType": "address payable",
          "name": "_to",
          "type": "address"
        }
      ],
      "name": "withdraw",
      "outputs": [],
      "stateMutability": "nonpayable",
      "type": "function"
    }
  ],
  "bytecode": "0x608060405234801561001057600080fd5b50336000806101000a81548173ffffffffffffffffffffffffffffffffffffffff021916908373ffffffffffffffffffffffffffffffffffffffff1602179055506000600260046101000a81548160ff0219169083151502179055506001600260006101000a81548163ffffffff021916908363ffffffff16021790555066038d7ea4c68000600181905550611c10806100ab6000396000f3fe6080604052600436106100905760003560e01c806381ae1fcd1161005957806381ae1fcd1461016d5780638da5cb5b14610196578063d37e5104146101c1578063ddca3f43146101d8578063e24d5d1e1461020357610090565b80626d6cae1461009557806347781a7b146100c057806351cff8d9146100f057806369fe0e2d1461011957806375f12b2114610142575b600080fd5b3480156100a157600080fd5b506100aa610244565b6040516100b7919061138c565b60405180910390f35b6100da60048036038101906100d59190610e4a565b61025a565b6040516100e7919061138c565b60405180910390f35b3480156100fc57600080fd5b5061011760048036038101906101129190610dc3565b610512565b005b34801561012557600080fd5b50610140600480360381019061013b9190610e77565b610650565b005b34801561014e57600080fd5b506101576106e8565b6040516101649190611236565b60405180910390f35b34801561017957600080fd5b50610194600480360381019061018f9190610ed1565b6106fb565b005b3480156101a257600080fd5b506101ab610b0b565b6040516101b891906111f7565b60405180910390f35b3480156101cd57600080fd5b506101d6610b2f565b005b3480156101e457600080fd5b506101ed610be9565b6040516101fa9190611371565b60405180910390f35b34801561020f57600080fd5b5061022a60048036038101906102259190610ea4565b610bef565b60405161023b9594939291906113d9565b60405180910390f35b600260009054906101000a900463ffffffff1681565b6000600260049054906101000a900460ff16156102ac576040517f08c379a00000000000000000000000000000000000000000000000000000000081526004016102a390611271565b60405180910390fd5b6001543410156102f1576040517f08c379a00000000000000000000000000000000000000000000000000000000081526004016102e890611311565b60405180910390fd5b60008260000160208101906103069190610f31565b60ff161180156103555750600073ffffffffffffffffffffffffffffffffffffffff1682604001602081019061033c9190610d96565b73ffffffffffffffffffffffffffffffffffffffff1614155b80156103b55750600060e01b7bffffffffffffffffffffffffffffffffffffffffffffffffffffffff19168260600160208101906103939190610e1d565b7bffffffffffffffffffffffffffffffffffffffffffffffffffffffff191614155b80156103d157508160800160208101906103cf9190610df0565b155b610410576040517f08c379a000000000000000000000000000000000000000000000000000000000815260040161040790611251565b60405180910390fd5b8160036000600260009054906101000a900463ffffffff1663ffffffff1663ffffffff168152602001908152602001600020818161044e9190611a65565b905050423373ffffffffffffffffffffffffffffffffffffffff16600260009054906101000a900463ffffffff1663ffffffff167fd10380222dde061a2b018a24fecbb59f59f9d164aced698cfa58f8b1d5ba79228560200160208101906104b69190610df0565b6040516104c39190611236565b60405180910390a46002600081819054906101000a900463ffffffff16809291906104ed906116a9565b91906101000a81548163ffffffff021916908363ffffffff1602179055509050919050565b60008054906101000a900473ffffffffffffffffffffffffffffffffffffffff1673ffffffffffffffffffffffffffffffffffffffff163373ffffffffffffffffffffffffffffffffffffffff16146105a0576040517f08c379a0000000000000000000000000000000000000000000000000000000008152600401610597906112f1565b60405180910390fd5b60008173ffffffffffffffffffffffffffffffffffffffff16476040516105c6906111e2565b60006040518083038185875af1925050503d8060008114610603576040519150601f19603f3d011682016040523d82523d6000602084013e610608565b606091505b505090508061064c576040517f08c379a000000000000000000000000000000000000000000000000000000000815260040161064390611351565b60405180910390fd5b5050565b60008054906101000a900473ffffffffffffffffffffffffffffffffffffffff1673ffffffffffffffffffffffffffffffffffffffff163373ffffffffffffffffffffffffffffffffffffffff16146106de576040517f08c379a00000000000000000000000000000000000000000000000000000000081526004016106d5906112f1565b60405180910390fd5b8060018190555050565b600260049054906101000a900460ff1681565b600260049054906101000a900460ff161561074b576040517f08c379a000000000000000000000000000000000000000000000000000000000815260040161074290611271565b60405180910390fd5b60008054906101000a900473ffffffffffffffffffffffffffffffffffffffff1673ffffffffffffffffffffffffffffffffffffffff163373ffffffffffffffffffffffffffffffffffffffff16146107d9576040517f08c379a00000000000000000000000000000000000000000000000000000000081526004016107d0906112f1565b60405180910390fd5b6000600360008563ffffffff1663ffffffff1681526020019081526020016000209050600073ffffffffffffffffffffffffffffffffffffffff168160000160029054906101000a900473ffffffffffffffffffffffffffffffffffffffff1673ffffffffffffffffffffffffffffffffffffffff161415610890576040517f08c379a0000000000000000000000000000000000000000000000000000000008152600401610887906112d1565b60405180910390fd5b8060000160009054906101000a900460ff1660ff1683839050146108e9576040517f08c379a00000000000000000000000000000000000000000000000000000000081526004016108e090611331565b60405180910390fd5b80600001601a9054906101000a900460ff161561093b576040517f08c379a0000000000000000000000000000000000000000000000000000000008152600401610932906112b1565b60405180910390fd5b600181600001601a6101000a81548160ff021916908315150217905550423373ffffffffffffffffffffffffffffffffffffffff168563ffffffff167f9c47933190d2c632e903dbb0c33cf91e558acdf4c1245e6ba4b0aaff31efe4df86866040516109a8929190611212565b60405180910390a460008160000160029054906101000a900473ffffffffffffffffffffffffffffffffffffffff1673ffffffffffffffffffffffffffffffffffffffff168260000160169054906101000a900460e01b868686604051602401610a14939291906113a7565b604051602081830303815290604052907bffffffffffffffffffffffffffffffffffffffffffffffffffffffff19166020820180517bffffffffffffffffffffffffffffffffffffffffffffffffffffffff8381831617835250505050604051610a7e91906111cb565b6000604051808303816000865af19150503d8060008114610abb576040519150601f19603f3d011682016040523d82523d6000602084013e610ac0565b606091505b5050905080610b04576040517f08c379a0000000000000000000000000000000000000000000000000000000008152600401610afb90611291565b60405180910390fd5b5050505050565b60008054906101000a900473ffffffffffffffffffffffffffffffffffffffff1681565b60008054906101000a900473ffffffffffffffffffffffffffffffffffffffff1673ffffffffffffffffffffffffffffffffffffffff163373ffffffffffffffffffffffffffffffffffffffff1614610bbd576040517f08c379a0000000000000000000000000000000000000000000000000000000008152600401610bb4906112f1565b60405180910390fd5b600260049054906101000a900460ff1615600260046101000a81548160ff021916908315150217905550565b60015481565b60036020528060005260406000206000915090508060000160009054906101000a900460ff16908060000160019054906101000a900460ff16908060000160029054906101000a900473ffffffffffffffffffffffffffffffffffffffff16908060000160169054906101000a900460e01b9080600001601a9054906101000a900460ff16905085565b600081359050610c8881611b22565b92915050565b600081359050610c9d81611b39565b92915050565b60008083601f840112610cb957610cb8611792565b5b8235905067ffffffffffffffff811115610cd657610cd561178d565b5b602083019150836020820283011115610cf257610cf161179c565b5b9250929050565b600081359050610d0881611b50565b92915050565b600081359050610d1d81611b67565b92915050565b600081359050610d3281611b7e565b92915050565b600060a08284031215610d4e57610d4d611797565b5b81905092915050565b600081359050610d6681611b95565b92915050565b600081359050610d7b81611bac565b92915050565b600081359050610d9081611bc3565b92915050565b600060208284031215610dac57610dab6117a6565b5b6000610dba84828501610c79565b91505092915050565b600060208284031215610dd957610dd86117a6565b5b6000610de784828501610c8e565b91505092915050565b600060208284031215610e0657610e056117a6565b5b6000610e1484828501610cf9565b91505092915050565b600060208284031215610e3357610e326117a6565b5b6000610e4184828501610d23565b91505092915050565b600060a08284031215610e6057610e5f6117a6565b5b6000610e6e84828501610d38565b91505092915050565b600060208284031215610e8d57610e8c6117a6565b5b6000610e9b84828501610d57565b91505092915050565b600060208284031215610eba57610eb96117a6565b5b6000610ec884828501610d6c565b91505092915050565b600080600060408486031215610eea57610ee96117a6565b5b6000610ef886828701610d6c565b935050602084013567ffffffffffffffff811115610f1957610f186117a1565b5b610f2586828701610ca3565b92509250509250925092565b600060208284031215610f4757610f466117a6565b5b6000610f5584828501610d81565b91505092915050565b6000610f6a8383610ff1565b60208301905092915050565b610f7f81611492565b82525050565b6000610f91838561144e565b9350610f9c8261142c565b8060005b85811015610fd557610fb2828461147b565b610fbc8882610f5e565b9750610fc783611441565b925050600181019050610fa0565b5085925050509392505050565b610feb816114b6565b82525050565b610ffa816114c2565b82525050565b611009816114ee565b82525050565b600061101a82611436565b611024818561145f565b93506110348185602086016115cd565b80840191505092915050565b600061104d60128361146a565b9150611058826117f9565b602082019050919050565b600061107060118361146a565b915061107b82611822565b602082019050919050565b600061109360188361146a565b915061109e8261184b565b602082019050919050565b60006110b6601c8361146a565b91506110c182611874565b602082019050919050565b60006110d9601d8361146a565b91506110e48261189d565b602082019050919050565b60006110fc60138361146a565b9150611107826118c6565b602082019050919050565b600061111f60008361145f565b915061112a826118ef565b600082019050919050565b600061114260148361146a565b915061114d826118f2565b602082019050919050565b600061116560198361146a565b91506111708261191b565b602082019050919050565b600061118860118361146a565b915061119382611944565b602082019050919050565b6111a78161153a565b82525050565b6111b681611544565b82525050565b6111c581611554565b82525050565b60006111d7828461100f565b915081905092915050565b60006111ed82611112565b9150819050919050565b600060208201905061120c6000830184610f76565b92915050565b6000602082019050818103600083015261122d818486610f85565b90509392505050565b600060208201905061124b6000830184610fe2565b92915050565b6000602082019050818103600083015261126a81611040565b9050919050565b6000602082019050818103600083015261128a81611063565b9050919050565b600060208201905081810360008301526112aa81611086565b9050919050565b600060208201905081810360008301526112ca816110a9565b9050919050565b600060208201905081810360008301526112ea816110cc565b9050919050565b6000602082019050818103600083015261130a816110ef565b9050919050565b6000602082019050818103600083015261132a81611135565b9050919050565b6000602082019050818103600083015261134a81611158565b9050919050565b6000602082019050818103600083015261136a8161117b565b9050919050565b6000602082019050611386600083018461119e565b92915050565b60006020820190506113a160008301846111ad565b92915050565b60006040820190506113bc60008301866111ad565b81810360208301526113cf818486610f85565b9050949350505050565b600060a0820190506113ee60008301886111bc565b6113fb6020830187610fe2565b6114086040830186610f76565b6114156060830185611000565b6114226080830184610fe2565b9695505050505050565b6000819050919050565b600081519050919050565b6000602082019050919050565b600082825260208201905092915050565b600081905092915050565b600082825260208201905092915050565b600061148a6020840184610d0e565b905092915050565b600061149d8261151a565b9050919050565b60006114af8261151a565b9050919050565b60008115159050919050565b60007fffff00000000000000000000000000000000000000000000000000000000000082169050919050565b60007fffffffff0000000000000000000000000000000000000000000000000000000082169050919050565b600073ffffffffffffffffffffffffffffffffffffffff82169050919050565b6000819050919050565b600063ffffffff82169050919050565b600060ff82169050919050565b600061156c82611597565b9050919050565b600061157e826114b6565b9050919050565b6000611590826114ee565b9050919050565b60006115a2826115a9565b9050919050565b60006115b48261151a565b9050919050565b60006115c682611554565b9050919050565b60005b838110156115eb5780820151818401526020810190506115d0565b838111156115fa576000848401525b50505050565b60008101600083018061161281611777565b905061161e8184611a73565b5050506000810160208301806116338161174b565b905061163f8184611a96565b50505060008101604083018061165481611735565b90506116608184611aff565b50505060008101606083018061167581611761565b90506116818184611ab9565b5050506000810160808301806116968161174b565b90506116a28184611adc565b5050505050565b60006116b482611544565b915063ffffffff8214156116cb576116ca6116d6565b5b600182019050919050565b7f4e487b7100000000000000000000000000000000000000000000000000000000600052601160045260246000fd5b6000819050919050565b6000819050919050565b6000611724826117ec565b9050919050565b6000819050919050565b6000813561174281611b22565b80915050919050565b6000813561175881611b50565b80915050919050565b6000813561176e81611b7e565b80915050919050565b6000813561178481611bc3565b80915050919050565b600080fd5b600080fd5b600080fd5b600080fd5b600080fd5b600080fd5b60008160001b9050919050565b60008160101b9050919050565b60008160b01b9050919050565b60008160d01b9050919050565b60008160081b9050919050565b60008160e01c9050919050565b7f496e7075742064617461206d697373696e670000000000000000000000000000600082015250565b7f4f7261636c652069732073746f70706564000000000000000000000000000000600082015250565b7f436f756c646e27742066756c66696c6c20726571756573740000000000000000600082015250565b7f5265717565737420697320616c72656164792066756c66696c6c656400000000600082015250565b7f4e6f20726571756573742077697468207468697320696420666f756e64000000600082015250565b7f53656e646572206973206e6f74206f776e657200000000000000000000000000600082015250565b50565b7f506c656173652073656e64206d6f726520455448000000000000000000000000600082015250565b7f496e636f7272656374206e756d626572206f6620636172647300000000000000600082015250565b7f5769746864726177616c206661696c6564000000000000000000000000000000600082015250565b600060ff61197a846117ab565b9350801983169250808416831791505092915050565b600061ff0061199e846117df565b9350801983169250808416831791505092915050565b60007aff00000000000000000000000000000000000000000000000000006119db846117d2565b9350801983169250808416831791505092915050565b600075ffffffffffffffffffffffffffffffffffffffff0000611a13846117b8565b9350801983169250808416831791505092915050565b600079ffffffff00000000000000000000000000000000000000000000611a4f846117c5565b9350801983169250808416831791505092915050565b611a6f8282611600565b5050565b611a7c826115bb565b611a8f611a888261172b565b835461196d565b8255505050565b611a9f82611573565b611ab2611aab8261170f565b8354611990565b8255505050565b611ac282611585565b611ad5611ace82611719565b8354611a29565b8255505050565b611ae582611573565b611af8611af18261170f565b83546119b4565b8255505050565b611b0882611561565b611b1b611b1482611705565b83546119f1565b8255505050565b611b2b81611492565b8114611b3657600080fd5b50565b611b42816114a4565b8114611b4d57600080fd5b50565b611b59816114b6565b8114611b6457600080fd5b50565b611b70816114c2565b8114611b7b57600080fd5b50565b611b87816114ee565b8114611b9257600080fd5b50565b611b9e8161153a565b8114611ba957600080fd5b50565b611bb581611544565b8114611bc057600080fd5b50565b611bcc81611554565b8114611bd757600080fd5b5056fea2646970667358221220bee550a2d217fb40d737abf88cd229e63d7e00b5f2439538925bba80ac1c77f464736f6c63430008070033",
  "linkReferences": {},
  "deployedLinkReferences": {}
}