{
  "_format": "hh-sol-artifact-1",
  "contractName": "CardsOracle",
  "sourceName": "contracts/CardsOracle.sol",
  "abi": [
    {
      "inputs": [],
      "stateMutability": "nonpayable",
      "type": "constructor"
    },
    {
      "anonymous": false,
      "inputs": [
        {
          "indexed": true,
          "internalType": "uint32",
          "name": "requestid",
          "type": "uint32"
        },
        {
          "indexed": false,
          "internalType": "bytes2[]",
          "name": "cards",
          "type": "bytes2[]"
        },
        {
          "indexed": true,
          "internalType": "address",
          "name": "sender",
          "type": "address"
        },
        {
          "indexed": true,
          "internalType": "uint256",
          "name": "timestamp",
          "type": "uint256"
        }
      ],
      "name": "OracleFulfillment",
      "type": "event"
    },
    {
      "anonymous": false,
      "inputs": [
        {
          "indexed": true,
          "internalType": "uint32",
          "name": "requestid",
          "type": "uint32"
        },
        {
          "indexed": false,
          "internalType": "bool",
          "name": "shuffle",
          "type": "bool"
        },
        {
          "indexed": false,
          "internalType": "uint8",
          "name": "nrOfCards",
          "type": "uint8"
        },
        {
          "indexed": true,
          "internalType": "address",
          "name": "sender",
          "type": "address"
        },
        {
          "indexed": true,
          "internalType": "uint256",
          "name": "timestamp",
          "type": "uint256"
        }
      ],
      "name": "OracleRequest",
      "type": "event"
    },
    {
      "inputs": [],
      "name": "fee",
      "outputs": [
        {
          "internalType": "uint256",
          "name": "",
          "type": "uint256"
        }
      ],
      "stateMutability": "view",
      "type": "function"
    },
    {
      "inputs": [
        {
          "internalType": "uint32",
          "name": "_requestId",
          "type": "uint32"
        },
        {
          "internalType": "bytes2[]",
          "name": "_cards",
          "type": "bytes2[]"
        }
      ],
      "name": "fulfillRequest",
      "outputs": [],
      "stateMutability": "nonpayable",
      "type": "function"
    },
    {
      "inputs": [
        {
          "internalType": "uint32",
          "name": "",
          "type": "uint32"
        }
      ],
      "name": "idToRequest",
      "outputs": [
        {
          "internalType": "uint8",
          "name": "nrOfCards",
          "type": "uint8"
        },
        {
          "internalType": "bool",
          "name": "shuffle",
          "type": "bool"
        },
        {
          "internalType": "address",
          "name": "cbClient",
          "type": "address"
        },
        {
          "internalType": "bytes4",
          "name": "cbSelector",
          "type": "bytes4"
        },
        {
          "internalType": "bool",
          "name": "fulfilled",
          "type": "bool"
        }
      ],
      "stateMutability": "view",
      "type": "function"
    },
    {
      "inputs": [],
      "name": "owner",
      "outputs": [
        {
          "internalType": "address",
          "name": "",
          "type": "address"
        }
      ],
      "stateMutability": "view",
      "type": "function"
    },
    {
      "inputs": [
        {
          "components": [
            {
              "internalType": "uint8",
              "name": "nrOfCards",
              "type": "uint8"
            },
            {
              "internalType": "bool",
              "name": "shuffle",
              "type": "bool"
            },
            {
              "internalType": "address",
              "name": "cbClient",
              "type": "address"
            },
            {
              "internalType": "bytes4",
              "name": "cbSelector",
              "type": "bytes4"
            },
            {
              "internalType": "bool",
              "name": "fulfilled",
              "type": "bool"
            }
          ],
          "internalType": "struct IOracle.Request",
          "name": "_request",
          "type": "tuple"
        }
      ],
      "name": "receiveRequest",
      "outputs": [
        {
          "internalType": "uint32",
          "name": "",
          "type": "uint32"
        }
      ],
      "stateMutability": "payable",
      "type": "function"
    },
    {
      "inputs": [],
      "name": "requestId",
      "outputs": [
        {
          "internalType": "uint32",
          "name": "",
          "type": "uint32"
        }
      ],
      "stateMutability": "view",
      "type": "function"
    },
    {
      "inputs": [
        {
          "internalType": "uint256",
          "name": "_fee",
          "type": "uint256"
        }
      ],
      "name": "setFee",
      "outputs": [],
      "stateMutability": "nonpayable",
      "type": "function"
    },
    {
      "inputs": [],
      "name": "stopped",
      "outputs": [
        {
          "internalType": "bool",
          "name": "",
          "type": "bool"
        }
      ],
      "stateMutability": "view",
      "type": "function"
    },
    {
      "inputs": [],
      "name": "toggleState",
      "outputs": [],
      "stateMutability": "nonpayable",
      "type": "function"
    },
    {
      "inputs": [
        {
          "internalType": "address payable",
          "name": "_to",
          "type": "address"
        }
      ],
      "name": "withdraw",
      "outputs": [],
      "stateMutability": "nonpayable",
      "type": "function"
    }
  ],
  "bytecode": "0x608060405234801561001057600080fd5b50336000806101000a81548173ffffffffffffffffffffffffffffffffffffffff021916908373ffffffffffffffffffffffffffffffffffffffff1602179055506000600260046101000a81548160ff0219169083151502179055506001600260006101000a81548163ffffffff021916908363ffffffff16021790555066038d7ea4c68000600181905550611c4d806100ab6000396000f3fe6080604052600436106100905760003560e01c806381ae1fcd1161005957806381ae1fcd1461016d5780638da5cb5b14610196578063d37e5104146101c1578063ddca3f43146101d8578063e24d5d1e1461020357610090565b80626d6cae1461009557806347781a7b146100c057806351cff8d9146100f057806369fe0e2d1461011957806375f12b2114610142575b600080fd5b3480156100a157600080fd5b506100aa610244565b6040516100b791906113c9565b60405180910390f35b6100da60048036038101906100d59190610e5e565b61025a565b6040516100e791906113c9565b60405180910390f35b3480156100fc57600080fd5b5061011760048036038101906101129190610dd7565b610526565b005b34801561012557600080fd5b50610140600480360381019061013b9190610e8b565b610664565b005b34801561014e57600080fd5b506101576106fc565b604051610164919061124a565b60405180910390f35b34801561017957600080fd5b50610194600480360381019061018f9190610ee5565b61070f565b005b3480156101a257600080fd5b506101ab610b1f565b6040516101b8919061120b565b60405180910390f35b3480156101cd57600080fd5b506101d6610b43565b005b3480156101e457600080fd5b506101ed610bfd565b6040516101fa91906113ae565b60405180910390f35b34801561020f57600080fd5b5061022a60048036038101906102259190610eb8565b610c03565b60405161023b959493929190611416565b60405180910390f35b600260009054906101000a900463ffffffff1681565b6000600260049054906101000a900460ff16156102ac576040517f08c379a00000000000000000000000000000000000000000000000000000000081526004016102a3906112ae565b60405180910390fd5b6001543410156102f1576040517f08c379a00000000000000000000000000000000000000000000000000000000081526004016102e89061134e565b60405180910390fd5b60008260000160208101906103069190610f45565b60ff161180156103555750600073ffffffffffffffffffffffffffffffffffffffff1682604001602081019061033c9190610daa565b73ffffffffffffffffffffffffffffffffffffffff1614155b80156103b55750600060e01b7bffffffffffffffffffffffffffffffffffffffffffffffffffffffff19168260600160208101906103939190610e31565b7bffffffffffffffffffffffffffffffffffffffffffffffffffffffff191614155b80156103d157508160800160208101906103cf9190610e04565b155b610410576040517f08c379a00000000000000000000000000000000000000000000000000000000081526004016104079061128e565b60405180910390fd5b8160036000600260009054906101000a900463ffffffff1663ffffffff1663ffffffff168152602001908152602001600020818161044e9190611aa2565b905050423373ffffffffffffffffffffffffffffffffffffffff16600260009054906101000a900463ffffffff1663ffffffff167f926632b10859d7c92c9f89bba6765e6b3daa7d01929596db726793f3ad26de6f8560200160208101906104b69190610e04565b8660000160208101906104c99190610f45565b6040516104d7929190611265565b60405180910390a46002600081819054906101000a900463ffffffff1680929190610501906116e6565b91906101000a81548163ffffffff021916908363ffffffff1602179055509050919050565b60008054906101000a900473ffffffffffffffffffffffffffffffffffffffff1673ffffffffffffffffffffffffffffffffffffffff163373ffffffffffffffffffffffffffffffffffffffff16146105b4576040517f08c379a00000000000000000000000000000000000000000000000000000000081526004016105ab9061132e565b60405180910390fd5b60008173ffffffffffffffffffffffffffffffffffffffff16476040516105da906111f6565b60006040518083038185875af1925050503d8060008114610617576040519150601f19603f3d011682016040523d82523d6000602084013e61061c565b606091505b5050905080610660576040517f08c379a00000000000000000000000000000000000000000000000000000000081526004016106579061138e565b60405180910390fd5b5050565b60008054906101000a900473ffffffffffffffffffffffffffffffffffffffff1673ffffffffffffffffffffffffffffffffffffffff163373ffffffffffffffffffffffffffffffffffffffff16146106f2576040517f08c379a00000000000000000000000000000000000000000000000000000000081526004016106e99061132e565b60405180910390fd5b8060018190555050565b600260049054906101000a900460ff1681565b600260049054906101000a900460ff161561075f576040517f08c379a0000000000000000000000000000000000000000000000000000000008152600401610756906112ae565b60405180910390fd5b60008054906101000a900473ffffffffffffffffffffffffffffffffffffffff1673ffffffffffffffffffffffffffffffffffffffff163373ffffffffffffffffffffffffffffffffffffffff16146107ed576040517f08c379a00000000000000000000000000000000000000000000000000000000081526004016107e49061132e565b60405180910390fd5b6000600360008563ffffffff1663ffffffff1681526020019081526020016000209050600073ffffffffffffffffffffffffffffffffffffffff168160000160029054906101000a900473ffffffffffffffffffffffffffffffffffffffff1673ffffffffffffffffffffffffffffffffffffffff1614156108a4576040517f08c379a000000000000000000000000000000000000000000000000000000000815260040161089b9061130e565b60405180910390fd5b8060000160009054906101000a900460ff1660ff1683839050146108fd576040517f08c379a00000000000000000000000000000000000000000000000000000000081526004016108f49061136e565b60405180910390fd5b80600001601a9054906101000a900460ff161561094f576040517f08c379a0000000000000000000000000000000000000000000000000000000008152600401610946906112ee565b60405180910390fd5b600181600001601a6101000a81548160ff021916908315150217905550423373ffffffffffffffffffffffffffffffffffffffff168563ffffffff167f9c47933190d2c632e903dbb0c33cf91e558acdf4c1245e6ba4b0aaff31efe4df86866040516109bc929190611226565b60405180910390a460008160000160029054906101000a900473ffffffffffffffffffffffffffffffffffffffff1673ffffffffffffffffffffffffffffffffffffffff168260000160169054906101000a900460e01b868686604051602401610a28939291906113e4565b604051602081830303815290604052907bffffffffffffffffffffffffffffffffffffffffffffffffffffffff19166020820180517bffffffffffffffffffffffffffffffffffffffffffffffffffffffff8381831617835250505050604051610a9291906111df565b6000604051808303816000865af19150503d8060008114610acf576040519150601f19603f3d011682016040523d82523d6000602084013e610ad4565b606091505b5050905080610b18576040517f08c379a0000000000000000000000000000000000000000000000000000000008152600401610b0f906112ce565b60405180910390fd5b5050505050565b60008054906101000a900473ffffffffffffffffffffffffffffffffffffffff1681565b60008054906101000a900473ffffffffffffffffffffffffffffffffffffffff1673ffffffffffffffffffffffffffffffffffffffff163373ffffffffffffffffffffffffffffffffffffffff1614610bd1576040517f08c379a0000000000000000000000000000000000000000000000000000000008152600401610bc89061132e565b60405180910390fd5b600260049054906101000a900460ff1615600260046101000a81548160ff021916908315150217905550565b60015481565b60036020528060005260406000206000915090508060000160009054906101000a900460ff16908060000160019054906101000a900460ff16908060000160029054906101000a900473ffffffffffffffffffffffffffffffffffffffff16908060000160169054906101000a900460e01b9080600001601a9054906101000a900460ff16905085565b600081359050610c9c81611b5f565b92915050565b600081359050610cb181611b76565b92915050565b60008083601f840112610ccd57610ccc6117cf565b5b8235905067ffffffffffffffff811115610cea57610ce96117ca565b5b602083019150836020820283011115610d0657610d056117d9565b5b9250929050565b600081359050610d1c81611b8d565b92915050565b600081359050610d3181611ba4565b92915050565b600081359050610d4681611bbb565b92915050565b600060a08284031215610d6257610d616117d4565b5b81905092915050565b600081359050610d7a81611bd2565b92915050565b600081359050610d8f81611be9565b92915050565b600081359050610da481611c00565b92915050565b600060208284031215610dc057610dbf6117e3565b5b6000610dce84828501610c8d565b91505092915050565b600060208284031215610ded57610dec6117e3565b5b6000610dfb84828501610ca2565b91505092915050565b600060208284031215610e1a57610e196117e3565b5b6000610e2884828501610d0d565b91505092915050565b600060208284031215610e4757610e466117e3565b5b6000610e5584828501610d37565b91505092915050565b600060a08284031215610e7457610e736117e3565b5b6000610e8284828501610d4c565b91505092915050565b600060208284031215610ea157610ea06117e3565b5b6000610eaf84828501610d6b565b91505092915050565b600060208284031215610ece57610ecd6117e3565b5b6000610edc84828501610d80565b91505092915050565b600080600060408486031215610efe57610efd6117e3565b5b6000610f0c86828701610d80565b935050602084013567ffffffffffffffff811115610f2d57610f2c6117de565b5b610f3986828701610cb7565b92509250509250925092565b600060208284031215610f5b57610f5a6117e3565b5b6000610f6984828501610d95565b91505092915050565b6000610f7e8383611005565b60208301905092915050565b610f93816114cf565b82525050565b6000610fa5838561148b565b9350610fb082611469565b8060005b85811015610fe957610fc682846114b8565b610fd08882610f72565b9750610fdb8361147e565b925050600181019050610fb4565b5085925050509392505050565b610fff816114f3565b82525050565b61100e816114ff565b82525050565b61101d8161152b565b82525050565b600061102e82611473565b611038818561149c565b935061104881856020860161160a565b80840191505092915050565b60006110616012836114a7565b915061106c82611836565b602082019050919050565b60006110846011836114a7565b915061108f8261185f565b602082019050919050565b60006110a76018836114a7565b91506110b282611888565b602082019050919050565b60006110ca601c836114a7565b91506110d5826118b1565b602082019050919050565b60006110ed601d836114a7565b91506110f8826118da565b602082019050919050565b60006111106013836114a7565b915061111b82611903565b602082019050919050565b600061113360008361149c565b915061113e8261192c565b600082019050919050565b60006111566014836114a7565b91506111618261192f565b602082019050919050565b60006111796019836114a7565b915061118482611958565b602082019050919050565b600061119c6011836114a7565b91506111a782611981565b602082019050919050565b6111bb81611577565b82525050565b6111ca81611581565b82525050565b6111d981611591565b82525050565b60006111eb8284611023565b915081905092915050565b600061120182611126565b9150819050919050565b60006020820190506112206000830184610f8a565b92915050565b60006020820190508181036000830152611241818486610f99565b90509392505050565b600060208201905061125f6000830184610ff6565b92915050565b600060408201905061127a6000830185610ff6565b61128760208301846111d0565b9392505050565b600060208201905081810360008301526112a781611054565b9050919050565b600060208201905081810360008301526112c781611077565b9050919050565b600060208201905081810360008301526112e78161109a565b9050919050565b60006020820190508181036000830152611307816110bd565b9050919050565b60006020820190508181036000830152611327816110e0565b9050919050565b6000602082019050818103600083015261134781611103565b9050919050565b6000602082019050818103600083015261136781611149565b9050919050565b600060208201905081810360008301526113878161116c565b9050919050565b600060208201905081810360008301526113a78161118f565b9050919050565b60006020820190506113c360008301846111b2565b92915050565b60006020820190506113de60008301846111c1565b92915050565b60006040820190506113f960008301866111c1565b818103602083015261140c818486610f99565b9050949350505050565b600060a08201905061142b60008301886111d0565b6114386020830187610ff6565b6114456040830186610f8a565b6114526060830185611014565b61145f6080830184610ff6565b9695505050505050565b6000819050919050565b600081519050919050565b6000602082019050919050565b600082825260208201905092915050565b600081905092915050565b600082825260208201905092915050565b60006114c76020840184610d22565b905092915050565b60006114da82611557565b9050919050565b60006114ec82611557565b9050919050565b60008115159050919050565b60007fffff00000000000000000000000000000000000000000000000000000000000082169050919050565b60007fffffffff0000000000000000000000000000000000000000000000000000000082169050919050565b600073ffffffffffffffffffffffffffffffffffffffff82169050919050565b6000819050919050565b600063ffffffff82169050919050565b600060ff82169050919050565b60006115a9826115d4565b9050919050565b60006115bb826114f3565b9050919050565b60006115cd8261152b565b9050919050565b60006115df826115e6565b9050919050565b60006115f182611557565b9050919050565b600061160382611591565b9050919050565b60005b8381101561162857808201518184015260208101905061160d565b83811115611637576000848401525b50505050565b60008101600083018061164f816117b4565b905061165b8184611ab0565b50505060008101602083018061167081611788565b905061167c8184611ad3565b50505060008101604083018061169181611772565b905061169d8184611b3c565b5050506000810160608301806116b28161179e565b90506116be8184611af6565b5050506000810160808301806116d381611788565b90506116df8184611b19565b5050505050565b60006116f182611581565b915063ffffffff82141561170857611707611713565b5b600182019050919050565b7f4e487b7100000000000000000000000000000000000000000000000000000000600052601160045260246000fd5b6000819050919050565b6000819050919050565b600061176182611829565b9050919050565b6000819050919050565b6000813561177f81611b5f565b80915050919050565b6000813561179581611b8d565b80915050919050565b600081356117ab81611bbb565b80915050919050565b600081356117c181611c00565b80915050919050565b600080fd5b600080fd5b600080fd5b600080fd5b600080fd5b600080fd5b60008160001b9050919050565b60008160101b9050919050565b60008160b01b9050919050565b60008160d01b9050919050565b60008160081b9050919050565b60008160e01c9050919050565b7f496e7075742064617461206d697373696e670000000000000000000000000000600082015250565b7f4f7261636c652069732073746f70706564000000000000000000000000000000600082015250565b7f436f756c646e27742066756c66696c6c20726571756573740000000000000000600082015250565b7f5265717565737420697320616c72656164792066756c66696c6c656400000000600082015250565b7f4e6f20726571756573742077697468207468697320696420666f756e64000000600082015250565b7f53656e646572206973206e6f74206f776e657200000000000000000000000000600082015250565b50565b7f506c656173652073656e64206d6f726520455448000000000000000000000000600082015250565b7f496e636f7272656374206e756d626572206f6620636172647300000000000000600082015250565b7f5769746864726177616c206661696c6564000000000000000000000000000000600082015250565b600060ff6119b7846117e8565b9350801983169250808416831791505092915050565b600061ff006119db8461181c565b9350801983169250808416831791505092915050565b60007aff0000000000000000000000000000000000000000000000000000611a188461180f565b9350801983169250808416831791505092915050565b600075ffffffffffffffffffffffffffffffffffffffff0000611a50846117f5565b9350801983169250808416831791505092915050565b600079ffffffff00000000000000000000000000000000000000000000611a8c84611802565b9350801983169250808416831791505092915050565b611aac828261163d565b5050565b611ab9826115f8565b611acc611ac582611768565b83546119aa565b8255505050565b611adc826115b0565b611aef611ae88261174c565b83546119cd565b8255505050565b611aff826115c2565b611b12611b0b82611756565b8354611a66565b8255505050565b611b22826115b0565b611b35611b2e8261174c565b83546119f1565b8255505050565b611b458261159e565b611b58611b5182611742565b8354611a2e565b8255505050565b611b68816114cf565b8114611b7357600080fd5b50565b611b7f816114e1565b8114611b8a57600080fd5b50565b611b96816114f3565b8114611ba157600080fd5b50565b611bad816114ff565b8114611bb857600080fd5b50565b611bc48161152b565b8114611bcf57600080fd5b50565b611bdb81611577565b8114611be657600080fd5b50565b611bf281611581565b8114611bfd57600080fd5b50565b611c0981611591565b8114611c1457600080fd5b5056fea26469706673582212205bc029fb111dbc700672bb4a7bf69ab013c8b279142712b3c8e8c5f58c88e9fb64736f6c63430008070033",
  "linkReferences": {},
  "deployedLinkReferences": {}
}