{
  "_format": "hh-sol-artifact-1",
  "contractName": "CardsClient",
  "sourceName": "contracts/CardsClient.sol",
  "abi": [
    {
      "inputs": [
        {
          "internalType": "address payable",
          "name": "_oracle",
          "type": "address"
        }
      ],
      "stateMutability": "nonpayable",
      "type": "constructor"
    },
    {
      "inputs": [
        {
          "internalType": "uint256",
          "name": "",
          "type": "uint256"
        }
      ],
      "name": "cards",
      "outputs": [
        {
          "internalType": "bytes2",
          "name": "",
          "type": "bytes2"
        }
      ],
      "stateMutability": "view",
      "type": "function"
    },
    {
      "inputs": [
        {
          "internalType": "uint8",
          "name": "_nrOfCards",
          "type": "uint8"
        }
      ],
      "name": "drawNCardsWithShuffle",
      "outputs": [
        {
          "internalType": "uint32",
          "name": "",
          "type": "uint32"
        }
      ],
      "stateMutability": "payable",
      "type": "function"
    },
    {
      "inputs": [
        {
          "internalType": "uint8",
          "name": "_nrOfCards",
          "type": "uint8"
        }
      ],
      "name": "drawNCardsWithoutShuffle",
      "outputs": [
        {
          "internalType": "uint32",
          "name": "",
          "type": "uint32"
        }
      ],
      "stateMutability": "payable",
      "type": "function"
    },
    {
      "inputs": [
        {
          "internalType": "uint32",
          "name": "_requestId",
          "type": "uint32"
        },
        {
          "internalType": "bytes2[]",
          "name": "_cards",
          "type": "bytes2[]"
        }
      ],
      "name": "fulfill",
      "outputs": [],
      "stateMutability": "nonpayable",
      "type": "function"
    },
    {
      "inputs": [],
      "name": "oracle",
      "outputs": [
        {
          "internalType": "address payable",
          "name": "",
          "type": "address"
        }
      ],
      "stateMutability": "view",
      "type": "function"
    },
    {
      "inputs": [],
      "name": "owner",
      "outputs": [
        {
          "internalType": "address",
          "name": "",
          "type": "address"
        }
      ],
      "stateMutability": "view",
      "type": "function"
    },
    {
      "inputs": [],
      "name": "pendingRequestId",
      "outputs": [
        {
          "internalType": "uint32",
          "name": "",
          "type": "uint32"
        }
      ],
      "stateMutability": "view",
      "type": "function"
    },
    {
      "inputs": [
        {
          "internalType": "address payable",
          "name": "_oracle",
          "type": "address"
        }
      ],
      "name": "setOracle",
      "outputs": [],
      "stateMutability": "nonpayable",
      "type": "function"
    },
    {
      "inputs": [
        {
          "internalType": "address payable",
          "name": "_to",
          "type": "address"
        }
      ],
      "name": "withdraw",
      "outputs": [],
      "stateMutability": "nonpayable",
      "type": "function"
    }
  ],
  "bytecode": "0x60806040523480156200001157600080fd5b506040516200136f3803806200136f8339818101604052810190620000379190620000d6565b336000806101000a81548173ffffffffffffffffffffffffffffffffffffffff021916908373ffffffffffffffffffffffffffffffffffffffff16021790555080600160006101000a81548173ffffffffffffffffffffffffffffffffffffffff021916908373ffffffffffffffffffffffffffffffffffffffff160217905550506200015b565b600081519050620000d08162000141565b92915050565b600060208284031215620000ef57620000ee6200013c565b5b6000620000ff84828501620000bf565b91505092915050565b600062000115826200011c565b9050919050565b600073ffffffffffffffffffffffffffffffffffffffff82169050919050565b600080fd5b6200014c8162000108565b81146200015857600080fd5b50565b611204806200016b6000396000f3fe6080604052600436106100865760003560e01c80638da5cb5b116100595780638da5cb5b146101385780638dc1076814610163578063c7a0616a146101a0578063e9c6abea146101c9578063f43806af146101f957610086565b806351cff8d91461008b57806376865f3f146100b45780637adbf973146100e45780637dc0d1d01461010d575b600080fd5b34801561009757600080fd5b506100b260048036038101906100ad9190610a39565b610224565b005b6100ce60048036038101906100c99190610b20565b61032c565b6040516100db9190610eab565b60405180910390f35b3480156100f057600080fd5b5061010b60048036038101906101069190610a39565b610340565b005b34801561011957600080fd5b506101226103dc565b60405161012f9190610d9a565b60405180910390f35b34801561014457600080fd5b5061014d610402565b60405161015a9190610d7f565b60405180910390f35b34801561016f57600080fd5b5061018a60048036038101906101859190610a93565b610426565b6040516101979190610db5565b60405180910390f35b3480156101ac57600080fd5b506101c760048036038101906101c29190610ac0565b61045d565b005b6101e360048036038101906101de9190610b20565b610586565b6040516101f09190610eab565b60405180910390f35b34801561020557600080fd5b5061020e61059a565b60405161021b9190610eab565b60405180910390f35b60008054906101000a900473ffffffffffffffffffffffffffffffffffffffff1673ffffffffffffffffffffffffffffffffffffffff163373ffffffffffffffffffffffffffffffffffffffff161461027c57600080fd5b60008173ffffffffffffffffffffffffffffffffffffffff16476040516102a290610d6a565b60006040518083038185875af1925050503d80600081146102df576040519150601f19603f3d011682016040523d82523d6000602084013e6102e4565b606091505b5050905080610328576040517f08c379a000000000000000000000000000000000000000000000000000000000815260040161031f90610e70565b60405180910390fd5b5050565b60006103398260006105b0565b9050919050565b60008054906101000a900473ffffffffffffffffffffffffffffffffffffffff1673ffffffffffffffffffffffffffffffffffffffff163373ffffffffffffffffffffffffffffffffffffffff161461039857600080fd5b80600160006101000a81548173ffffffffffffffffffffffffffffffffffffffff021916908373ffffffffffffffffffffffffffffffffffffffff16021790555050565b600160009054906101000a900473ffffffffffffffffffffffffffffffffffffffff1681565b60008054906101000a900473ffffffffffffffffffffffffffffffffffffffff1681565b6002818154811061043657600080fd5b9060005260206000209060109182820401919006600202915054906101000a900460f01b81565b600160009054906101000a900473ffffffffffffffffffffffffffffffffffffffff1673ffffffffffffffffffffffffffffffffffffffff163373ffffffffffffffffffffffffffffffffffffffff16146104ed576040517f08c379a00000000000000000000000000000000000000000000000000000000081526004016104e490610dd0565b60405180910390fd5b600360009054906101000a900463ffffffff1663ffffffff168363ffffffff161461054d576040517f08c379a000000000000000000000000000000000000000000000000000000000815260040161054490610e10565b60405180910390fd5b6000600360006101000a81548163ffffffff021916908363ffffffff160217905550818160029190610580929190610893565b50505050565b60006105938260016105b0565b9050919050565b600360009054906101000a900463ffffffff1681565b600080600360009054906101000a900463ffffffff1663ffffffff161461060c576040517f08c379a000000000000000000000000000000000000000000000000000000000815260040161060390610e50565b60405180910390fd5b60008360ff16118015610622575060358360ff16105b610661576040517f08c379a000000000000000000000000000000000000000000000000000000000815260040161065890610df0565b60405180910390fd5b60006040518060a001604052808560ff16815260200184151581526020013073ffffffffffffffffffffffffffffffffffffffff16815260200163c7a0616a60e01b7bffffffffffffffffffffffffffffffffffffffffffffffffffffffff19168152602001600015158152509050600080600160009054906101000a900473ffffffffffffffffffffffffffffffffffffffff1673ffffffffffffffffffffffffffffffffffffffff16348460405160240161071e9190610e90565b6040516020818303038152906040527f47781a7b000000000000000000000000000000000000000000000000000000007bffffffffffffffffffffffffffffffffffffffffffffffffffffffff19166020820180517bffffffffffffffffffffffffffffffffffffffffffffffffffffffff83818316178352505050506040516107a89190610d53565b60006040518083038185875af1925050503d80600081146107e5576040519150601f19603f3d011682016040523d82523d6000602084013e6107ea565b606091505b509150915081610851576000600360006101000a81548163ffffffff021916908363ffffffff1602179055506040517f08c379a000000000000000000000000000000000000000000000000000000000815260040161084890610e30565b60405180910390fd5b808060200190518101906108659190610a66565b61ffff16600360006101000a81548163ffffffff021916908363ffffffff1602179055935050505092915050565b82805482825590600052602060002090600f0160109004810192821561094c5791602002820160005b8382111561091c5783357dffffffffffffffffffffffffffffffffffffffffffffffffffffffffffff191683826101000a81548161ffff021916908360f01c021790555092602001926002016020816001010492830192600103026108bc565b801561094a5782816101000a81549061ffff021916905560020160208160010104928301926001030261091c565b505b509050610959919061095d565b5090565b5b8082111561097657600081600090555060010161095e565b5090565b6000813590506109898161115b565b92915050565b60008083601f8401126109a5576109a4611002565b5b8235905067ffffffffffffffff8111156109c2576109c1610ffd565b5b6020830191508360208202830111156109de576109dd611007565b5b9250929050565b6000815190506109f481611172565b92915050565b600081359050610a0981611189565b92915050565b600081359050610a1e816111a0565b92915050565b600081359050610a33816111b7565b92915050565b600060208284031215610a4f57610a4e611011565b5b6000610a5d8482850161097a565b91505092915050565b600060208284031215610a7c57610a7b611011565b5b6000610a8a848285016109e5565b91505092915050565b600060208284031215610aa957610aa8611011565b5b6000610ab7848285016109fa565b91505092915050565b600080600060408486031215610ad957610ad8611011565b5b6000610ae786828701610a0f565b935050602084013567ffffffffffffffff811115610b0857610b0761100c565b5b610b148682870161098f565b92509250509250925092565b600060208284031215610b3657610b35611011565b5b6000610b4484828501610a24565b91505092915050565b610b5681610eff565b82525050565b610b6581610eed565b82525050565b610b7481610eed565b82525050565b610b8381610f11565b82525050565b610b9281610f1d565b82525050565b610ba181610f49565b82525050565b6000610bb282610ec6565b610bbc8185610ed1565b9350610bcc818560208601610fca565b80840191505092915050565b6000610be5601883610edc565b9150610bf082611016565b602082019050919050565b6000610c08601683610edc565b9150610c138261103f565b602082019050919050565b6000610c2b601283610edc565b9150610c3682611068565b602082019050919050565b6000610c4e602183610edc565b9150610c5982611091565b604082019050919050565b6000610c71602283610edc565b9150610c7c826110e0565b604082019050919050565b6000610c94600083610ed1565b9150610c9f8261112f565b600082019050919050565b6000610cb7601183610edc565b9150610cc282611132565b602082019050919050565b60a082016000820151610ce36000850182610d44565b506020820151610cf66020850182610b7a565b506040820151610d096040850182610b5c565b506060820151610d1c6060850182610b98565b506080820151610d2f6080850182610b7a565b50505050565b610d3e81610fad565b82525050565b610d4d81610fbd565b82525050565b6000610d5f8284610ba7565b915081905092915050565b6000610d7582610c87565b9150819050919050565b6000602082019050610d946000830184610b6b565b92915050565b6000602082019050610daf6000830184610b4d565b92915050565b6000602082019050610dca6000830184610b89565b92915050565b60006020820190508181036000830152610de981610bd8565b9050919050565b60006020820190508181036000830152610e0981610bfb565b9050919050565b60006020820190508181036000830152610e2981610c1e565b9050919050565b60006020820190508181036000830152610e4981610c41565b9050919050565b60006020820190508181036000830152610e6981610c64565b9050919050565b60006020820190508181036000830152610e8981610caa565b9050919050565b600060a082019050610ea56000830184610ccd565b92915050565b6000602082019050610ec06000830184610d35565b92915050565b600081519050919050565b600081905092915050565b600082825260208201905092915050565b6000610ef882610f83565b9050919050565b6000610f0a82610f83565b9050919050565b60008115159050919050565b60007fffff00000000000000000000000000000000000000000000000000000000000082169050919050565b60007fffffffff0000000000000000000000000000000000000000000000000000000082169050919050565b600061ffff82169050919050565b600073ffffffffffffffffffffffffffffffffffffffff82169050919050565b6000819050919050565b600063ffffffff82169050919050565b600060ff82169050919050565b60005b83811015610fe8578082015181840152602081019050610fcd565b83811115610ff7576000848401525b50505050565b600080fd5b600080fd5b600080fd5b600080fd5b600080fd5b7f43616c6c6572206973206e6f7420746865206f7261636c650000000000000000600082015250565b7f44726177206174206c65617374206f6e65206361726400000000000000000000600082015250565b7f496e76616c696420726571756573742069640000000000000000000000000000600082015250565b7f43616c6c20746f204f7261636c6520776173206e6f742073756363657373667560008201527f6c00000000000000000000000000000000000000000000000000000000000000602082015250565b7f546865726520697320616c726561647920612070656e64696e6720726571756560008201527f7374000000000000000000000000000000000000000000000000000000000000602082015250565b50565b7f5769746864726177616c206661696c6564000000000000000000000000000000600082015250565b61116481610eff565b811461116f57600080fd5b50565b61117b81610f75565b811461118657600080fd5b50565b61119281610fa3565b811461119d57600080fd5b50565b6111a981610fad565b81146111b457600080fd5b50565b6111c081610fbd565b81146111cb57600080fd5b5056fea264697066735822122072cd3b29483b88c9dd6ea9b8e42571d11cd30c1ec3ea9048e2c0aa87c77162ab64736f6c63430008070033",
  "linkReferences": {},
  "deployedLinkReferences": {}
}