{
  "_format": "hh-sol-artifact-1",
  "contractName": "CardsClient",
  "sourceName": "contracts/CardsClient.sol",
  "abi": [
    {
      "inputs": [
        {
          "internalType": "address payable",
          "name": "_oracle",
          "type": "address"
        }
      ],
      "stateMutability": "nonpayable",
      "type": "constructor"
    },
    {
      "anonymous": false,
      "inputs": [
        {
          "indexed": true,
          "internalType": "uint32",
          "name": "requestid",
          "type": "uint32"
        },
        {
          "indexed": false,
          "internalType": "bytes2[]",
          "name": "cards",
          "type": "bytes2[]"
        },
        {
          "indexed": true,
          "internalType": "address",
          "name": "sender",
          "type": "address"
        },
        {
          "indexed": true,
          "internalType": "uint256",
          "name": "timestamp",
          "type": "uint256"
        }
      ],
      "name": "ClientFulfillment",
      "type": "event"
    },
    {
      "inputs": [
        {
          "internalType": "uint256",
          "name": "",
          "type": "uint256"
        }
      ],
      "name": "cards",
      "outputs": [
        {
          "internalType": "bytes2",
          "name": "",
          "type": "bytes2"
        }
      ],
      "stateMutability": "view",
      "type": "function"
    },
    {
      "inputs": [
        {
          "internalType": "uint8",
          "name": "_nrOfCards",
          "type": "uint8"
        }
      ],
      "name": "drawNCardsWithShuffle",
      "outputs": [
        {
          "internalType": "uint32",
          "name": "",
          "type": "uint32"
        }
      ],
      "stateMutability": "payable",
      "type": "function"
    },
    {
      "inputs": [
        {
          "internalType": "uint8",
          "name": "_nrOfCards",
          "type": "uint8"
        }
      ],
      "name": "drawNCardsWithoutShuffle",
      "outputs": [
        {
          "internalType": "uint32",
          "name": "",
          "type": "uint32"
        }
      ],
      "stateMutability": "payable",
      "type": "function"
    },
    {
      "inputs": [
        {
          "internalType": "uint32",
          "name": "_requestId",
          "type": "uint32"
        },
        {
          "internalType": "bytes2[]",
          "name": "_cards",
          "type": "bytes2[]"
        }
      ],
      "name": "fulfill",
      "outputs": [],
      "stateMutability": "nonpayable",
      "type": "function"
    },
    {
      "inputs": [],
      "name": "oracle",
      "outputs": [
        {
          "internalType": "address payable",
          "name": "",
          "type": "address"
        }
      ],
      "stateMutability": "view",
      "type": "function"
    },
    {
      "inputs": [],
      "name": "owner",
      "outputs": [
        {
          "internalType": "address",
          "name": "",
          "type": "address"
        }
      ],
      "stateMutability": "view",
      "type": "function"
    },
    {
      "inputs": [],
      "name": "pendingRequestId",
      "outputs": [
        {
          "internalType": "uint32",
          "name": "",
          "type": "uint32"
        }
      ],
      "stateMutability": "view",
      "type": "function"
    },
    {
      "inputs": [
        {
          "internalType": "address payable",
          "name": "_oracle",
          "type": "address"
        }
      ],
      "name": "setOracle",
      "outputs": [],
      "stateMutability": "nonpayable",
      "type": "function"
    },
    {
      "inputs": [
        {
          "internalType": "address payable",
          "name": "_to",
          "type": "address"
        }
      ],
      "name": "withdraw",
      "outputs": [],
      "stateMutability": "nonpayable",
      "type": "function"
    }
  ],
  "bytecode": "0x60806040523480156200001157600080fd5b50604051620014da380380620014da8339818101604052810190620000379190620000d6565b336000806101000a81548173ffffffffffffffffffffffffffffffffffffffff021916908373ffffffffffffffffffffffffffffffffffffffff16021790555080600160006101000a81548173ffffffffffffffffffffffffffffffffffffffff021916908373ffffffffffffffffffffffffffffffffffffffff160217905550506200015b565b600081519050620000d08162000141565b92915050565b600060208284031215620000ef57620000ee6200013c565b5b6000620000ff84828501620000bf565b91505092915050565b600062000115826200011c565b9050919050565b600073ffffffffffffffffffffffffffffffffffffffff82169050919050565b600080fd5b6200014c8162000108565b81146200015857600080fd5b50565b61136f806200016b6000396000f3fe6080604052600436106100865760003560e01c80638da5cb5b116100595780638da5cb5b146101385780638dc1076814610163578063c7a0616a146101a0578063e9c6abea146101c9578063f43806af146101f957610086565b806351cff8d91461008b57806376865f3f146100b45780637adbf973146100e45780637dc0d1d01461010d575b600080fd5b34801561009757600080fd5b506100b260048036038101906100ad9190610aa6565b610224565b005b6100ce60048036038101906100c99190610b8d565b61032c565b6040516100db9190610fc0565b60405180910390f35b3480156100f057600080fd5b5061010b60048036038101906101069190610aa6565b610340565b005b34801561011957600080fd5b506101226103dc565b60405161012f9190610e8b565b60405180910390f35b34801561014457600080fd5b5061014d610402565b60405161015a9190610e70565b60405180910390f35b34801561016f57600080fd5b5061018a60048036038101906101859190610b00565b610426565b6040516101979190610eca565b60405180910390f35b3480156101ac57600080fd5b506101c760048036038101906101c29190610b2d565b61045d565b005b6101e360048036038101906101de9190610b8d565b6105de565b6040516101f09190610fc0565b60405180910390f35b34801561020557600080fd5b5061020e6105f2565b60405161021b9190610fc0565b60405180910390f35b60008054906101000a900473ffffffffffffffffffffffffffffffffffffffff1673ffffffffffffffffffffffffffffffffffffffff163373ffffffffffffffffffffffffffffffffffffffff161461027c57600080fd5b60008173ffffffffffffffffffffffffffffffffffffffff16476040516102a290610e5b565b60006040518083038185875af1925050503d80600081146102df576040519150601f19603f3d011682016040523d82523d6000602084013e6102e4565b606091505b5050905080610328576040517f08c379a000000000000000000000000000000000000000000000000000000000815260040161031f90610f85565b60405180910390fd5b5050565b6000610339826000610608565b9050919050565b60008054906101000a900473ffffffffffffffffffffffffffffffffffffffff1673ffffffffffffffffffffffffffffffffffffffff163373ffffffffffffffffffffffffffffffffffffffff161461039857600080fd5b80600160006101000a81548173ffffffffffffffffffffffffffffffffffffffff021916908373ffffffffffffffffffffffffffffffffffffffff16021790555050565b600160009054906101000a900473ffffffffffffffffffffffffffffffffffffffff1681565b60008054906101000a900473ffffffffffffffffffffffffffffffffffffffff1681565b6002818154811061043657600080fd5b9060005260206000209060109182820401919006600202915054906101000a900460f01b81565b600160009054906101000a900473ffffffffffffffffffffffffffffffffffffffff1673ffffffffffffffffffffffffffffffffffffffff163373ffffffffffffffffffffffffffffffffffffffff16146104ed576040517f08c379a00000000000000000000000000000000000000000000000000000000081526004016104e490610ee5565b60405180910390fd5b600360009054906101000a900463ffffffff1663ffffffff168363ffffffff161461054d576040517f08c379a000000000000000000000000000000000000000000000000000000000815260040161054490610f25565b60405180910390fd5b423373ffffffffffffffffffffffffffffffffffffffff168463ffffffff167f096bd1806bb69198eea8ea03f46a868e3f25740a78bfa5f7e94922150e613609858560405161059d929190610ea6565b60405180910390a46000600360006101000a81548163ffffffff021916908363ffffffff1602179055508181600291906105d89291906108eb565b50505050565b60006105eb826001610608565b9050919050565b600360009054906101000a900463ffffffff1681565b600080600360009054906101000a900463ffffffff1663ffffffff1614610664576040517f08c379a000000000000000000000000000000000000000000000000000000000815260040161065b90610f65565b60405180910390fd5b60008360ff1611801561067a575060358360ff16105b6106b9576040517f08c379a00000000000000000000000000000000000000000000000000000000081526004016106b090610f05565b60405180910390fd5b60006040518060a001604052808560ff16815260200184151581526020013073ffffffffffffffffffffffffffffffffffffffff16815260200163c7a0616a60e01b7bffffffffffffffffffffffffffffffffffffffffffffffffffffffff19168152602001600015158152509050600080600160009054906101000a900473ffffffffffffffffffffffffffffffffffffffff1673ffffffffffffffffffffffffffffffffffffffff1634846040516024016107769190610fa5565b6040516020818303038152906040527f47781a7b000000000000000000000000000000000000000000000000000000007bffffffffffffffffffffffffffffffffffffffffffffffffffffffff19166020820180517bffffffffffffffffffffffffffffffffffffffffffffffffffffffff83818316178352505050506040516108009190610e44565b60006040518083038185875af1925050503d806000811461083d576040519150601f19603f3d011682016040523d82523d6000602084013e610842565b606091505b5091509150816108a9576000600360006101000a81548163ffffffff021916908363ffffffff1602179055506040517f08c379a00000000000000000000000000000000000000000000000000000000081526004016108a090610f45565b60405180910390fd5b808060200190518101906108bd9190610ad3565b61ffff16600360006101000a81548163ffffffff021916908363ffffffff1602179055935050505092915050565b82805482825590600052602060002090600f016010900481019282156109a45791602002820160005b838211156109745783357dffffffffffffffffffffffffffffffffffffffffffffffffffffffffffff191683826101000a81548161ffff021916908360f01c02179055509260200192600201602081600101049283019260010302610914565b80156109a25782816101000a81549061ffff0219169055600201602081600101049283019260010302610974565b505b5090506109b191906109b5565b5090565b5b808211156109ce5760008160009055506001016109b6565b5090565b6000813590506109e1816112af565b92915050565b60008083601f8401126109fd576109fc611156565b5b8235905067ffffffffffffffff811115610a1a57610a19611151565b5b602083019150836020820283011115610a3657610a3561115b565b5b9250929050565b600081359050610a4c816112c6565b92915050565b600081519050610a61816112dd565b92915050565b600081359050610a76816112f4565b92915050565b600081359050610a8b8161130b565b92915050565b600081359050610aa081611322565b92915050565b600060208284031215610abc57610abb611165565b5b6000610aca848285016109d2565b91505092915050565b600060208284031215610ae957610ae8611165565b5b6000610af784828501610a52565b91505092915050565b600060208284031215610b1657610b15611165565b5b6000610b2484828501610a67565b91505092915050565b600080600060408486031215610b4657610b45611165565b5b6000610b5486828701610a7c565b935050602084013567ffffffffffffffff811115610b7557610b74611160565b5b610b81868287016109e7565b92509250509250925092565b600060208284031215610ba357610ba2611165565b5b6000610bb184828501610a91565b91505092915050565b6000610bc68383610c6b565b60208301905092915050565b610bdb81611053565b82525050565b610bea81611041565b82525050565b610bf981611041565b82525050565b6000610c0b8385610ffd565b9350610c1682610fdb565b8060005b85811015610c4f57610c2c828461102a565b610c368882610bba565b9750610c4183610ff0565b925050600181019050610c1a565b5085925050509392505050565b610c6581611065565b82525050565b610c7481611071565b82525050565b610c8381611071565b82525050565b610c928161109d565b82525050565b6000610ca382610fe5565b610cad818561100e565b9350610cbd81856020860161111e565b80840191505092915050565b6000610cd6601883611019565b9150610ce18261116a565b602082019050919050565b6000610cf9601683611019565b9150610d0482611193565b602082019050919050565b6000610d1c601283611019565b9150610d27826111bc565b602082019050919050565b6000610d3f602183611019565b9150610d4a826111e5565b604082019050919050565b6000610d62602283611019565b9150610d6d82611234565b604082019050919050565b6000610d8560008361100e565b9150610d9082611283565b600082019050919050565b6000610da8601183611019565b9150610db382611286565b602082019050919050565b60a082016000820151610dd46000850182610e35565b506020820151610de76020850182610c5c565b506040820151610dfa6040850182610be1565b506060820151610e0d6060850182610c89565b506080820151610e206080850182610c5c565b50505050565b610e2f81611101565b82525050565b610e3e81611111565b82525050565b6000610e508284610c98565b915081905092915050565b6000610e6682610d78565b9150819050919050565b6000602082019050610e856000830184610bf0565b92915050565b6000602082019050610ea06000830184610bd2565b92915050565b60006020820190508181036000830152610ec1818486610bff565b90509392505050565b6000602082019050610edf6000830184610c7a565b92915050565b60006020820190508181036000830152610efe81610cc9565b9050919050565b60006020820190508181036000830152610f1e81610cec565b9050919050565b60006020820190508181036000830152610f3e81610d0f565b9050919050565b60006020820190508181036000830152610f5e81610d32565b9050919050565b60006020820190508181036000830152610f7e81610d55565b9050919050565b60006020820190508181036000830152610f9e81610d9b565b9050919050565b600060a082019050610fba6000830184610dbe565b92915050565b6000602082019050610fd56000830184610e26565b92915050565b6000819050919050565b600081519050919050565b6000602082019050919050565b600082825260208201905092915050565b600081905092915050565b600082825260208201905092915050565b60006110396020840184610a3d565b905092915050565b600061104c826110d7565b9050919050565b600061105e826110d7565b9050919050565b60008115159050919050565b60007fffff00000000000000000000000000000000000000000000000000000000000082169050919050565b60007fffffffff0000000000000000000000000000000000000000000000000000000082169050919050565b600061ffff82169050919050565b600073ffffffffffffffffffffffffffffffffffffffff82169050919050565b6000819050919050565b600063ffffffff82169050919050565b600060ff82169050919050565b60005b8381101561113c578082015181840152602081019050611121565b8381111561114b576000848401525b50505050565b600080fd5b600080fd5b600080fd5b600080fd5b600080fd5b7f43616c6c6572206973206e6f7420746865206f7261636c650000000000000000600082015250565b7f44726177206174206c65617374206f6e65206361726400000000000000000000600082015250565b7f496e76616c696420726571756573742069640000000000000000000000000000600082015250565b7f43616c6c20746f204f7261636c6520776173206e6f742073756363657373667560008201527f6c00000000000000000000000000000000000000000000000000000000000000602082015250565b7f546865726520697320616c726561647920612070656e64696e6720726571756560008201527f7374000000000000000000000000000000000000000000000000000000000000602082015250565b50565b7f5769746864726177616c206661696c6564000000000000000000000000000000600082015250565b6112b881611053565b81146112c357600080fd5b50565b6112cf81611071565b81146112da57600080fd5b50565b6112e6816110c9565b81146112f157600080fd5b50565b6112fd816110f7565b811461130857600080fd5b50565b61131481611101565b811461131f57600080fd5b50565b61132b81611111565b811461133657600080fd5b5056fea2646970667358221220067953c6388dd60ebca6d8c138ec7d4d470e7d31b42e493adf8e37f635f0beb364736f6c63430008070033",
  "linkReferences": {},
  "deployedLinkReferences": {}
}